:020000021000EC
:10B0000000400020F548020035490200374902009F
:10B010000000000000000000000000000000000030
:10B02000000000000000000000000000394902009C
:10B0300000000000000000003B4902003D49020002
:10B040003F4902003F4902003D4602003F490200DD
:10B050003F49020000000000FDDD010091480200B0
:10B060003F4902003F490200152802003F49020003
:10B070003F4902003F4902003F4902003F490200A8
:10B080003F4902009DD101003F4902003F490200B3
:10B0900059D2010019100200C9FF01003F49020006
:10B0A0003F4902003F49020000000000000000008C
:10B0B0000000000000000000000000000000000090
:10B0C00010B5064C2378002B07D1054B002B02D07E
:10B0D000044800E000BF0123237010BD742200204B
:10B0E00000000000A4A00200044B10B5002B03D008
:10B0F0000349044800E000BF10BDC0460000000046
:10B1000078220020A4A00200164B002B00D1144B83
:10B110009D46402292029A1A924600218B460F4683
:10B120001348144A121A00F065F80F4B002B00D098
:10B1300098470E4B002B00D09847002000210400B8
:10B140000D000D48002802D00C4800E000BF00F0C0
:10B150002DF82000290007F05FFE00F011F8C0462E
:10B160000000080000400020000000000000000077
:10B17000742200207C2F002000000000000000004E
:10B18000084B10B50400002B02D0002100E000BFE6
:10B19000054B1868836A002B00D09847200001F007
:10B1A00079FFC04600000000E09A020070B500265A
:10B1B0000C4D0D4C641BA410A64209D100260EF0C4
:10B1C00083FC0A4D0A4C641BA410A64205D170BD35
:10B1D000B300EB5898470136EEE7B300EB589847B9
:10B1E0000136F2E76C2200206C2200206C22002045
:10B1F0007022002003008218934200D1704719701A
:10B200000133F9E7F0B51E00002314008BB09E4215
:10B2100004DA8021090673181E002D23129A149F48
:10B220001370202303229F43462F07D03B00453B4A
:10B2300059424B411099013ACB18109309AB049332
:10B2400008AB0393139B00920293109B220001937F
:10B25000330000F0E3FC0500472F02D1119BDB0710
:10B2600028D5109BEB180793462F14D12B78302B41
:10B270000CD100220023200031000BF039FB002804
:10B2800004D10123109A9B1A139A1360139B079AF7
:10B290001B68D318079300220023200031000BF015
:10B2A00027FB002801D0079B09933022099B0799AF
:10B2B0008B4206D32800099B159A5B1B13600BB0C9
:10B2C000F0BD591C09911A70F0E7F0B5831C87B0E6
:10B2D000039305000C002B230270002901DA4C4275
:10B2E00002336B70092C31DD0A2704ABDE1D200010
:10B2F000390001960BF0E6FA013E30312000317042
:10B30000390002940BF0F8F9029B0400632BEEDC89
:10B31000019B30349A1E13000399147004A807305F
:10B3200098420ED804AB073300209A4204D804ABED
:10B330000930C018019BC01A039B1818401B07B0A6
:10B34000F0BD1878013308700131E7E73023E418C5
:10B35000AB70281DEC70F1E7F0B595B00C000892C9
:10B360001A9D0993070001F03FFA036818000B9338
:10B3700000F0C2FB00231293237E07221E002368E5
:10B380000D900C930C992B68C90547D59B189343D6
:10B390001A0008322A601A685B68A264E36401221A
:10B3A000A36CE56C0A936B005B080E930A98A84B9C
:10B3B0000E9952420EF00CF8002831D10122A44B14
:10B3C0000A980E9952420BF0A3FA002828D10022C5
:10B3D000002329000A980BF091FA002803D02300DB
:10B3E0002D2243331A709B4D472E00D99A4D0323CB
:10B3F0000C9A236101339A43002322600A93099B2C
:10B40000210000933800089B13AA00F0F3F9431CB5
:10B4100000D09EE00120404215B0F0BD0733B6E7F2
:10B420000A9A2B00100029000DF0D2FF00280AD044
:10B43000002D03DA23002D2243331A70874D472E47
:10B44000D5D9874DD3E720223100636891430E910F
:10B450005A1C47D10733636080230C9ADB001343E7
:10B460000022069212AA059211AA0392232208A989
:10B4700023600193636852180292009338002B00F6
:10B480000A9A0496FFF7BEFE0E9B05001199472B02
:10B4900008D1CB1C02DB6368994246DD3300023BD6
:10B4A000DBB21E00652E24D8200032000139503056
:10B4B0001191FFF70AFF129A0A9013182361012ACB
:10B4C00002DC2268D20701D501332361232308AAB5
:10B4D0009B181B78002B00D191E723002D224333CA
:10B4E0001A708CE70E9A472AB6D1002BB4D10133DB
:10B4F000B1E7662E1BD1636800290DDD2161002BA9
:10B5000002D12268D20702D5013359182161119B5B
:10B51000A36500230A93D9E7002B03D101222168F8
:10B52000114200D09A1C2261F1E767231E00119B93
:10B53000129A934206DB22682361D207E7D50133D2
:10B540002361E4E70121002B01DC4918C91A5218D4
:10B55000E9E72268530508D423692A0038000899CE
:10B56000099DA847431C29D154E7652E00D8ECE07B
:10B57000A06CE16C002200230BF0BAF9002834D053
:10B5800001233800374A0899099DA847431C00D178
:10B5900040E7119B129A934202DB2368DB070DD52B
:10B5A000099D38000D9B0B9A0899A8470025431C5C
:10B5B00000D12FE7129B013BAB420ADC23689B07BB
:10B5C00000D514E1139BE068984200DB24E71800E3
:10B5D00022E72200012338000899099E1A32B04759
:10B5E000431C00D116E70135E4E7119B002B3BDC3F
:10B5F000012338001B4A0899099EB047431C00D11B
:10B6000008E7119B129A134302D12368DB07D5D5B3
:10B610000D9B38000B9A0899099EB047431C00D136
:10B62000F8E600230A93119B0A9A5B42934201DCDD
:10B63000129B92E72200012338000899099E1A32D2
:10B64000B047431C00D1E5E60A9B0133EAE7C04658
:10B65000FFFFEF7FE49A0200E89A0200EC9A0200F2
:10B66000F09A0200DD9D0200129AA36D0A929A429E
:10B6700000DD0A930A9B002B3DDC00230E930A9BFE
:10B68000DB43DB170F93A36D0F9A0C930A9B1340B8
:10B690000C9AD31A0E9A934236DC119B129A93425B
:10B6A00040DB2368DB073DD4129A0C9B1199D31A17
:10B6B000521A0A929A4200DD0A930A9B002B3ADC46
:10B6C0000A9B0025DB43DB170B93119A129B0B9906
:10B6D0009B1A0A9A0A409B1AAB4200DC6EE72200D2
:10B6E000012338000899099E1A32B047431C00D143
:10B6F00090E60135E9E70A9B2A0038000899099E7F
:10B70000B047431CB9D185E62200012338000899CF
:10B71000099E1A32B047431C00D17BE60E9B0133D1
:10B720000E93B0E70D9B38000B9A0899099EB0471D
:10B73000431CB9D16EE60C9B3800EA1808990A9BA5
:10B74000099DA847431CBBD164E6129B012B02DC78
:10B7500001231A4238D001232A0038000899099E93
:10B76000B047431C00D155E60D9B38000B9A089951
:10B77000099EB047431C00D14CE6A06CE16C00224E
:10B7800000230BF0B5F800281CD1129B6A1C013B6A
:10B7900038000899099DA847431C0FD13AE62200BA
:10B7A000012338000899099E1A32B047431C00D182
:10B7B00030E60135129B013BAB42F0DC22000A9BD4
:10B7C0005032CBE60025F5E72A00E1E7220001230D
:10B7D00038000899099E1932B047431C00D119E678
:10B7E0000135E368139A9B1AAB42EFDCEAE60025C9
:10B7F000F7E7C046F7B5150001938A680B690C009E
:10B800000090934200DA130022002B60433212783A
:10B81000002A01D001332B6023689B0602D52B68D8
:10B8200002332B602268062317001F401A4227D0DC
:10B83000230043331B785A1E93412268920630D46A
:10B84000220001990098089E4332B047431C25D03E
:10B85000062320682A68E16800250340042B03D1F1
:10B860008D1AEB43DB171D40A3682269934201DD6B
:10B870009B1AED180027BD4220D1002010E00137AF
:10B88000E3682A689B1ABB42D2DD2200012301999A
:10B890000098089E1932B047431CF0D10120404265
:10B8A000FEBD3020E1184331087021005A1C45319B
:10B8B0000978A218433202331170C1E72200012334
:10B8C00001990098089E1A32B047431CE6D0013710
:10B8D000D1E70000F0B58BB006920A00433207931F
:10B8E000059004920A7E0C00109B782A06D8622AE2
:10B8F00008D8002A00D1C0E0582A52D0260042368B
:10B90000327022E0100063381528F7D80AF056FE8E
:10B9100016001F00F6FFF6FFF6FFF6FF1F00F6FF0A
:10B92000F6FFF6FFF6FFA80036009A00F6FFF6FFD6
:10B93000B900F6FF3600F6FFF6FF9E0026001A68F3
:10B940004236111D1960136833700123A7E008689F
:10B9500019680A1D05060BD50D681A60002D03DA5B
:10B960002D23049A6D421370614B0A27039332E032
:10B970000D681A604106F1D52DB2EFE70D68196820
:10B98000081D18602E0601D50D6803E06D06FBD575
:10B990000D68ADB2564B0A2703936F2A17D10827BB
:10B9A00015E045310A70524A03921A68216820CA8C
:10B9B0001A60080650D5CB0702D520231943216011
:10B9C0001027002D03D1202322689A4322602300F0
:10B9D000002243331A706368A360002B03DB042248
:10B9E000216891432160002D02D1049E002B0CD0D0
:10B9F000049E280039000AF07BFE039B013E5B5C3D
:10BA000033702B0005009F42F3D9082F09D123681A
:10BA1000DB0706D563682269934202DC3023013ECE
:10BA20003370049B9B1B2361079B210000930598A7
:10BA3000069B09AAFFF7DEFE431C35D101204042D8
:10BA40000BB0F0BD202209680A4322602200782151
:10BA500045321170274AA7E74806ACD5ADB2AAE730
:10BA60001A680D68101D4969186013682E0601D503
:10BA7000196002E06D06FBD519800023049E236146
:10BA8000D2E71A68111D196016680021300062683B
:10BA900000F0B8FE002801D0801B6060636823615D
:10BAA0000023049A1370BFE72369320006990598B2
:10BAB000079DA847431CC1D023689B0715D4099B49
:10BAC000E0689842BCDA1800BAE722000123069920
:10BAD0000598079E1932B047431CAFD00135E36883
:10BAE000099A9B1AAB42F0DCE9E70025F7E7C0466C
:10BAF000F49A0200059B02000023C25C0133002A75
:10BB0000FBD1581E7047F0B506000D69336987B048
:10BB100000200291AB426BDB0B00013DAC00143303
:10BB200005931B1903933300143301931C19039BD2
:10BB300027681B68380000930133190004930AF04A
:10BB400051FD049B00909F4229D300239C460198FD
:10BB5000059F049308CF009A99B251431B0C53439D
:10BB600061440A0C9B181A0C0593036894469AB218
:10BB7000049B89B2D2180368521A190C6B469B8A2F
:10BB8000CB1A11145B18191492B21B041A43039BAD
:10BB9000049104C0BB42DDD22368002B2ED03000BC
:10BBA000029901F07BF8002821DB30000024009B83
:10BBB00002990133009314301431026808C992B21B
:10BBC00014199AB2A21A04681B0C240CE31A141458
:10BBD0001B191C1492B21B04134308C0039B8B4215
:10BBE000EBD2019AAB00D3181A68002A10D0009843
:10BBF00007B0F0BD2368002B04D1013D019B043C3C
:10BC0000A342F7D33561CAE71A68002A04D1013D7F
:10BC1000019A043B9A42F7D33561E8E7F0B59FB04B
:10BC200002920393029B039C0C930D94446A279DFC
:10BC30000590002C08D1102000F0DAFD059B44602F
:10BC4000586284600460C460059B5B6A19680029BF
:10BC50000BD05A68012393404A608B60059800F02E
:10BC60001DFE0022059B5B6A1A60039B002B21DAF4
:10BC700001232B60039B5B005B080D930D9DB64B6E
:10BC80002A001A931A409A4217D1B44B269A2803D5
:10BC90001360029B000B184301D100F08FFDB04BE5
:10BCA000289A0A93002A02D0AE4B289A13600A9869
:10BCB0001FB0F0BD00232B60E0E70C9B0D9C12939E
:10BCC000139412981399002200230AF011FE041E07
:10BCD0000BD00123269A1360A34B289A0A93002ABB
:10BCE000E5D0A24A28990A60E1E71CAB01931DAB9D
:10BCF00000930598129A139B01F06EF86E0006905F
:10BD0000760D00D17EE012981399139B984A1B037D
:10BD10001B0B1A431100974B1894F6180022964BF0
:10BD20000CF0C4FF954A964B0CF054FD954A964B87
:10BD30000BF0E0FD040030000D000DF09DFB934A78
:10BD4000934B0CF047FD02000B00200029000BF084
:10BD5000D1FD04000D000DF059FB002202900023DC
:10BD6000200029000AF0CAFD00280BD002980DF02F
:10BD700083FB2B0022000AF0BBFD43425841029B8B
:10BD80001B1A029301231693029B162B0FD81298AD
:10BD90001399DA007F4B9B181A685B680AF0AEFDB6
:10BDA00000284BD0029B013B0293002316931C9B5F
:10BDB0009E1B00230B933300013B0F9304D50123FB
:10BDC0009B1B0B9300230F93029B002B38DB029AE3
:10BDD0000F9B944663440F93002315921093249B6A
:10BDE0000124092B00D990E0052B02DD0024043B3F
:10BDF0002493249B981E032800D98FE00AF0D4FBDB
:10BE0000293634831C9B1D9A9E18634BF218202AF6
:10BE10000FDD40239B1A9D40604B0298F318D840D9
:10BE200028430DF059FB01235D4C013E091918937D
:10BE300074E7202302989B1A9840F2E71690B6E721
:10BE40000B9B029A9B1A0B9353421093002315935A
:10BE5000C5E700231493259B002B63DC01231A0004
:10BE60000E93079325920DE00123F3E70023259A13
:10BE700014939446029B63440E9301330793002B63
:10BE800000DC0123059A556A00226A600432100022
:10BE900014306968984249D9059800F0C7FC059BA1
:10BEA00028605B6A1B680A93079B0E2B00D9F2E09F
:10BEB000002C00D1EFE0029B002B75DD1A000F2152
:10BEC000344B0A40D2009B181D685E68029B022713
:10BED0001C11DB050AD5334B0C401A6A5B6A1298B9
:10BEE00013990CF071F80C900D9101372D4B0893BC
:10BEF000002C1FD10C980D992A0033000CF064F827
:10BF00000C900D916BE00123B1E70023149424936E
:10BF1000013B0E93079300221333A3E701231493ED
:10BF2000023BF6E7259B0E930793ABE7013169606F
:10BF30005200ACE701231C4209D0FF18089B2800DF
:10BF40001A685B6831000CF045FC05000E00089B88
:10BF500064100833CBE7C0460000F07F0F270000D5
:10BF60001F9B0200229B0200DD9D0200DE9D02005D
:10BF70000000F03F01FCFFFF0000F83F61436F63EA
:10BF8000A787D23FB3C8608B288AC63FFB799F50F2
:10BF90001344D33F509B02003204000012040000FF
:10BFA000000010FE289B0200029B0227002B16D0E7
:10BFB000129813995C420F23D34A2340DB00D31815
:10BFC0001A685B680CF006FC012600230C900D91AA
:10BFD000CE4D2411002C00D08DE0002B90D1169B6B
:10BFE000002B00D192E00C9C0D9D00222000290026
:10BFF000C74B0AF083FC002800D187E0079B002B89
:10C0000000D183E00E9B002B41DD029B0022013B0F
:10C01000119320002900BF4B0CF0DCFB0C900D911C
:10C020000E9E013738000C9C0D9D0DF025FA220064
:10C030002B000CF0CFFB0022B74B0BF05BFC0C90FD
:10C040000D910C9A0D9B089209930D9BB34A9F1872
:10C050000997002E5ED1002220002900B04B0CF081
:10C0600025FE3B00089A04000D000AF05BFC002846
:10C0700000D0A8E2AB480D99844661440B00200033
:10C080002900089A0AF03AFC002800D099E2129B95
:10C09000139C0C930D941D9B002B00DA68E1029A0F
:10C0A0000E2A00DD64E1984BD2009B181E685F6881
:10C0B000259B002B00DBD7E0079B002B00DDD3E0A6
:10C0C00000D07DE2002230003900954B0CF082FB5D
:10C0D0000C9A0D9B0AF030FC079E3700002800D018
:10C0E00054E20A9B0A9A0133089331231370029B8E
:10C0F000013302934FE2344205D02A686B680CF09A
:10C1000069FB330001376410083563E7029B079E23
:10C11000119387E77C4B721ED20014999B181A6802
:10C120005B6800294ED000207F490BF04DFF089A34
:10C13000099B0CF0BBFD0A9B0C900D911793F31813
:10C140001B93200029000DF061F919900DF094F96E
:10C1500002000B00200029000CF0A8FD179B199C81
:10C1600001330893179B30341C700C9A0D9B06000A
:10C170000F000AF0C3FB00286CD132003B00002006
:10C1800063490CF093FD0C9A0D9B0AF0B7FB002855
:10C1900000D0CDE01B9B089A934200D177E70C9822
:10C1A0000D9900225B4B0CF015FB5A4B0C900D9136
:10C1B0000022300039000CF00DFB089B04000D003C
:10C1C0001793BEE7089809990CF004FB0A9F0C909E
:10C1D0000D91BB191793290020000DF017F9089055
:10C1E0000DF04AF90B000200290020000CF05EFD62
:10C1F000089B040030333B70179B01370D00BB4296
:10C200002BD10C980D990A9B00229B190893464B41
:10C210000BF070FB02000B00200029000AF082FBEB
:10C22000002800D084E00C9A0D9B00203E490CF0C1
:10C230003DFD02000B00200029000AF05FFB0028F2
:10C2400000D124E7089B1A00013A08921278302A9C
:10C25000F8D00893119B029345E000222D4B0CF07F
:10C26000B9FA04000D00B6E70A9B079A0B93013B4D
:10C270009B180C9C0D9D0C9332003B002000290064
:10C280000BF0A2FE0DF0C2F807900DF0F5F83200A9
:10C290003B000CF09FFA02000B00200029000CF07C
:10C2A00005FD0B9B1A0001320B920892079A30325F
:10C2B0001A700C9A9A424ED102000B000BF01AFB36
:10C2C00032003B0004000D000AF02CFB00282DD1A9
:10C2D00032003B00200029000AF00AFB002802D0AF
:10C2E000079BDB0722D40598069900F0D7FA0023B4
:10C2F000089A02981370269B01301860289B002B27
:10C3000000D1D4E41A60D2E4509B0200289B0200C2
:10C310000000F03F0000244000001C400000C0FC72
:10C32000000014400000C07C0000E03F029B11931D
:10C33000089B0893013B1A78392A08D10A9A9A4235
:10C34000F7D1119A0A990132119230220A701A78A3
:10C3500001321A707EE70022CC4B0CF03BFA00222F
:10C36000002304000D000AF0C3FA002884D0BAE7C5
:10C37000149A002A00D18AE0249A012A6EDC189AC5
:10C38000002A67D0C24A9B18109D0B9C0B9A012172
:10C39000D2180B920F9A0598D3180F9300F01DFB3B
:10C3A0000700002C0EDD0F9B002B0BDD0F9A2300E6
:10C3B000944200DD13000B9AE41AD21A0B920F9AE2
:10C3C000D31A0F93109B002B1ED0149B002B62D00E
:10C3D000002D10DD39002A00059800F0ABFB069A0D
:10C3E00001000700059800F001FB0600069905987A
:10C3F00000F054FA0696109B5A1BAB4204D00699E3
:10C40000059800F097FB06900121059800F0E5FAE9
:10C41000159B0600002B40DD1A000100059800F076
:10C4200089FB249B06000025012B3EDC00250C9B8C
:10C43000AB4236D10D9B1B03AB4232D11A9B0D9AF6
:10C4400013422ED00B9B013501330B930F9B01330D
:10C450000F9326E036231C9A9B1A95E7079B5D1ED7
:10C46000109BAB4208DB5D1B079B002B0CDA0B9B80
:10C47000079A9C1A002389E7109B159AEB1AD31888
:10C48000109515930025EFE70B9C079B7EE7109D09
:10C490000B9C149F85E7109AB1E7249B0025012B84
:10C4A000C4DD159B0120002B08D0336903339B00AA
:10C4B000F318586800F049FA2023181A0F9B1F221E
:10C4C000181803001340104246D00132D21A042A31
:10C4D0003FDD1C22D31A0B9AE418D2180B920F9A44
:10C4E000D3180F930B9B002B05DD1A0006990598B6
:10C4F00000F070FB06900F9B002B05DD31001A0049
:10C50000059800F067FB0600169B002B26D0310033
:10C51000069800F0C3FB002820DA029B0A22013BA8
:10C52000029306990023059800F0D1F9149B069018
:10C53000002B00D14CE1002339000A22059800F0BD
:10C54000C6F90E9B0700002B47DC249B022B44DD21
:10C550000CE0042AC6D013001C33BCE7079B002B59
:10C5600035DC249B022B32DD079B0E930E9B002BA8
:10C570000CD131000522059800F0A9F90600010050
:10C58000069800F08BFB002800DDAAE5259BDB4325
:10C5900002930A9B089300253100059800F07EF96C
:10C5A000002F00D19FE6002D05D0BD4203D0290009
:10C5B000059800F073F93900059800F06FF992E6DC
:10C5C00000263700E2E7119B3700029389E5149BB0
:10C5D000002B00D1B4E0079B0E93002C05DD390041
:10C5E0002200059800F0F6FA07003800002D11D05F
:10C5F0007968059800F01AF9390004003B690C319C
:10C600009A1C92000C3000F008F9012221000598D4
:10C6100000F0E0FA3D0007000A9B079331000698FE
:10C62000FFF771FA290004000F90069800F036FB1E
:10C630003A0010903100059800F04BFBC36830348D
:10C64000119301230B93119B0890002B04D101003F
:10C65000069800F023FB0B900598089900F01EF94E
:10C6600001230C980B9A1840079B01330893249BD5
:10C67000134303430ED1392C26D0109B002B01DD30
:10C680000F9C3134079B1C7086E7C0460000244095
:10C6900033040000109B002B03DB249A1343034355
:10C6A0001ED10B9B002BEDDD06990122059800F0B1
:10C6B00091FA3100069000F0F1FA002802DCE1D195
:10C6C000E307DFD5392CDBD13923079A1370089B98
:10C6D0000893013B1A78392A67D001321A705BE758
:10C6E0000B9B002B03DD392CEED00134CAE7079BEE
:10C6F0000A9A1C7001239B1A079A9B180E9A9A4259
:10C700003ED000230A220699059800F0E0F80023A5
:10C7100006900A2229000598BD4206D100F0D7F8FC
:10C7200005000700089B079378E700F0D0F8390070
:10C73000050000230A22059800F0C9F80700F1E778
:10C74000079B0E93002531000698FFF7DCF90A9B42
:10C75000303058550E9B01350400AB4207DD0023F5
:10C760000A220699059800F0B2F80690EBE70E9BB6
:10C770000120002B00DD180000250A9B1B180893E0
:10C7800006990122059800F025FA3100069000F084
:10C7900085FA00289BDC01D1E30798D4089B089315
:10C7A000013B1A78302AFAD0F6E60A9A9A428FD1DB
:10C7B000029B0133029331231370EDE6084B289A54
:10C7C0000A93084B002A01D0FFF76FFAFFF76FFAC0
:10C7D0000E9B002BB6DC249B022BB3DDC6E6C046C5
:10C7E000169B02001E9B020000487047D4210020C7
:10C7F00010B5034B0100186800F09CFB10BDC0464B
:10C8000080200020C9B28218904201D100207047D8
:10C8100003788B42FBD00130F6E7002310B59A4233
:10C8200000D110BDCC5CC4540133F8E770B5456A43
:10C8300006000C00002D07D11020FFF7D9FF706211
:10C84000456085600560C560756AEB68002B13D094
:10C85000736AA200DB689B181868002818D10121B0
:10C860000D00A5406A1D3000920000F00BFB00286F
:10C870000CD0446085600DE021220421300000F0DE
:10C8800001FB736AE860DB68002BE1D1002070BD1A
:10C8900002681A6000230361C360F8E770B5466A56
:10C8A00005000C00002E07D11020FFF7A1FF6862E1
:10C8B000466086600660C660002C07D06B6A6268BE
:10C8C000DB6892009B181A6822601C6070BDF7B587
:10C8D0001E0014239C4607000C0000200D698C44A8
:10C8E00063461B68013099B263461B6851431B0CB9
:10C8F000534389190E0C9B1989B21E0C1B045B183B
:10C90000614608C18C468542EADC002E1BD0A36834
:10C91000AB4212DC63683800591CFFF787FF210027
:10C92000236901909A1C92000C310C30FFF775FFBF
:10C9300021003800FFF7B2FF019C2B1D9B00E3187C
:10C9400001355E6025612000FEBD0300020C002061
:10C95000824201D11B0410301A0E01D108301B0293
:10C960001A0F01D104301B019A0F01D102309B0034
:10C97000002B03DB01305B0000D4202070470368EC
:10C9800002000721180008400B420DD00639002094
:10C990000B4205D10230034203D0CB4008001360A4
:10C9A00070479B081360FBE799B2002901D1102062
:10C9B0001B0CD9B2002901D108301B0A190701D17B
:10C9C00004301B09990701D102309B08D907E9D42B
:10C9D00001305B08E6D12020E2E710B50C00012110
:10C9E000FFF724FF01234461036110BDF0B50B691B
:10C9F000140012690D0089B0934201DA25000C0081
:10CA00002F6926696968BB190193AB68BA1993420B
:10CA100000DA0131FFF70AFF030014339C46BB190B
:10CA20009B006344029300226346049002998B4268
:10CA30002CD32B0022001433BF0014320693B6000F
:10CA4000DB19039393190793042305932B00039990
:10CA500015330092994205D34B1B153B9B080133BC
:10CA60009B000593079B009A9A4211D3019B002BD0
:10CA700006DD029B043B02931B680093002B54D0FD
:10CA8000049B019A18001A6109B0F0BD04C3CDE7F8
:10CA9000009B1B6898B200281CD067460024069EA5
:10CAA00002CE3A688BB24343090C414392B29B18C1
:10CAB0001B190C003A68110C61181C0C09190C0C9C
:10CAC0009BB209040B4308C7039BB342E8D86346F3
:10CAD000059A9C50009B1B681E0C20D063462C00BE
:10CAE000604600271B68143422689BB291B27143E0
:10CAF0000268120C8918CF1939040B43036002CC69
:10CB00004368090C71439BB23F0CCB18039ADB19A5
:10CB10001F0C0430A242E7D8624605995350009B8F
:10CB20000433009304239C449CE7019B013B019345
:10CB30009CE70000F7B50323150007000E001A401C
:10CB40001D4208D02149013A920052580023310079
:10CB5000FFF7BDFE0600AD1035D07C6A002C07D172
:10CB60001020FFF745FE7862446084600460C46072
:10CB70007B6A9C680193002C08D138001449FFF7A8
:10CB80002CFF019B040098600023036001231D42D9
:10CB90000AD0310022003800FFF728FF3100019051
:10CBA0003800FFF77BFE019E6D100CD02068002836
:10CBB00007D1220021003800FFF718FF0023206072
:10CBC00003600400E2E73000FEBDC046189C02008E
:10CBD00071020000F0B50C0017002369551187B0F1
:10CBE000EB180293013301934968A3680490019AFA
:10CBF000934246DB0498FFF719FE02001432060048
:10CC0000002311000392AB423EDBEB43DB171D40D8
:10CC1000039BAD001F2138005D19230022691433E6
:10CC20009200084084469A180F4232D00131091A06
:10CC300005910021039567461868B84001430398A1
:10CC400002C002CB03900598C1409A42F3D820005D
:10CC500015300423904204D8131B153B9B08013365
:10CC60009B00E950002902D0029B02330193019BF3
:10CC70000498013B21003361FFF710FE300007B03C
:10CC8000F0BD01315B00B2E7002298000A50013389
:10CC9000B9E702CB02C59A42FBD8E8E702690B6903
:10CCA00030B50400D01A9A420DD19B0014341431CF
:10CCB000E218C918043A043915680B689D4203D07C
:10CCC00001209D4203D330BD9442F3D3FBE74042A1
:10CCD000F9E7F0B50E0007001100300087B014002E
:10CCE000FFF7DCFF051E08D101003800FFF79EFDAD
:10CCF00001234561036107B0F0BD012301930028C2
:10CD000004DB230034001E00002301936168380017
:10CD1000FFF78CFD019B256914340194C360019BCE
:10CD2000AC001B1934000293336914349900631862
:10CD300003930300002714339C460593019B04933F
:10CD4000049B04CC02CB04938BB2DF1993B2FB1A81
:10CD5000090C120C8A1A1914521817149BB21204D7
:10CD60001343624608C2039B9446A342E8D83200AC
:10CD7000039915320423914204D38B1B153B9B0866
:10CD800001339B00019AD418059AD3189C462200BF
:10CD900002998A4210D3029EE11E00228E4204D3E1
:10CDA00032000332121B920892009B18043B1A684F
:10CDB000002A0FD005619EE702CA8EB2F6190F0C49
:10CDC000311479180F14B6B209040E43614640C1FC
:10CDD0008C46DDE7013DE9E7F7B51D0001211400B0
:10CDE000089FFFF723FD2B036D0006001B0B6D0D45
:10CDF00024D10193002C27D068460094FFF7BFFD93
:10CE0000009C00281ED0019B20211A00091A8A408C
:10CE1000C340224372610193019CB461631E9C4133
:10CE200001343461002D18D0134BED1835232D1823
:10CE3000181A099B3D6018603000FEBD8022520325
:10CE40001343D6E77461E7E701A8FFF798FD0124D3
:10CE5000019B346173612030E4E7084BC018084B34
:10CE60003860E3189B00F3185869FFF76EFD640102
:10CE7000099B241A1C60DFE7CDFBFFFFCEFBFFFF01
:10CE8000FFFFFF3F4A4370B51100150000F052F854
:10CE9000041E03D02A000021FEF7ACF9200070BD6B
:10CEA00070B50500002910D00C1F2368002B00DA94
:10CEB000E418280000F0C0F81D4A1368002B05D1C3
:10CEC00063601460280000F0BFF870BDA34208D969
:10CED000216860188342F3D118685B6841182160AB
:10CEE000EEE71A005B68002B01D0A342F9D9116864
:10CEF0005018A0420BD120680918501811608342C5
:10CF0000E0D118685B68411811605360DAE7A0420D
:10CF100002D90C232B60D5E721686018834203D126
:10CF200018685B684118216063605460CAE7C046B6
:10CF300090220020F8B50323CD1C9D430835060040
:10CF40000C2D1FD20C25A9421ED8300000F074F819
:10CF500025490A681400002C1AD1244F3B68002B85
:10CF600004D12100300000F043F83860290030007F
:10CF700000F03EF8431C2BD10C233000336000F04E
:10CF800063F803E0002DDEDA0C2333600020F8BDE7
:10CF900023685B1B19D40B2B03D92360E41825608D
:10CFA00003E06368A2420ED10B60300000F04CF841
:10CFB000200007220B30231D9043C21A9842E6D06E
:10CFC0001B1AA350E3E75360EFE722006468C2E74F
:10CFD0000323C41C9C43A042E1D0211A300000F07E
:10CFE00007F8431CDBD1C7E79022002094220020E1
:10CFF000002370B5064D040008002B6000F03CF8DB
:10D00000431C03D12B68002B00D0236070BDC046A9
:10D01000682E002082B0002900D101A9101E06D080
:10D02000002B06D013780B601078431E984102B095
:10D03000704702204042FAE710B5024800F019F8A4
:10D0400010BDC046702E002010B5024800F012F846
:10D0500010BDC046702E00200300081E05D0FF2A18
:10D0600004D98A2201201A604042704701200A70C8
:10D07000FBE7704770470000044A0300106800286F
:10D0800002D0C318136070470148FAE798220020C5
:10D09000802F0020FEE7C0468022194B9202DA67FB
:10D0A000D2218022174B520289005A5040395A50DF
:10D0B00001212F22596010000138C046C046C046E9
:10D0C000C046C046C046C046C046C046C046C04630
:10D0D000C046F1D1996000230B4910000B60013864
:10D0E000C046C046C046C046C046C046C046C04610
:10D0F000C046C046C046C046F1D1044A13707047CE
:10D1000004E100E000100140B0220020A122002034
:10D1100010B54378020001338078DBB2984200D129
:10D120000023147800209C4205D00B7053781830EF
:10D1300043435068C01810BD10B5EFF30583DB05FD
:10D140000220DC0D002B1CD0103C032221001140DA
:10D15000914060B2E3B2240614D50F200340083B8F
:10D160000C489B089B001B185B68CB409B09134035
:10D170000020DAB2012B04D0033A1000421E904185
:10D18000013010BD800803000348C0339B001B58CA
:10D19000EBE7C04618ED00E000E100E0F8B5002440
:10D1A000234B5C649C64DC641C655C609C60214B6C
:10D1B0001B68A34233D0204A20498D58204A126868
:10D1C000AD1A2D022D0A1A68AA4215D8AD1AA41854
:10D1D0001A7CDE69002A0DD000221A74194A996956
:10D1E00017685A69002F1DD01000B847002801D0D9
:10D1F00000F0BEFB002E13D1134A144B11781B789C
:10D200008B4204D10133DBB2022B0ED013701378A2
:10D210000F4A9B009C5080220E4B52035A60F8BD6F
:10D220003300D0E708009047E4E70023EEE7C0466C
:10D23000FC100140B822002004050000001001404D
:10D24000B02200209C220020AD220020AC22002031
:10D25000A4220020FCE100E0F0B5AC49AC4A0B6828
:10D26000AC488BB014780593037800229C4200D11F
:10D27000C7E00133DBB2022B00D1C0E003700378BA
:10D28000A54A9B009A58059B9B181B021B0A0B6022
:10D290000123009300250124A04B08951B680693E9
:10D2A0009F4B1B7801939F4B01991B68029103933D
:10D2B000964B1B6807939C4B1B780993069B02991E
:10D2C0000139C9B20291FF2900D09CE008990029D8
:10D2D00005D09549099808708C49079808608F49CE
:10D2E000002D00D00B600B680099002900D0DDE014
:10D2F000069A0025D31A5A1E9341DBB20093874B3E
:10D300001B680593884B059A1B7807937F4B1B6816
:10D31000029300230493019B013BDBB20193FF2B9B
:10D3200000D0C8E004997D4B002900D01A601B682A
:10D33000059A9A4203D1009A002A00D15AE0002BA4
:10D3400000D13EE11B68794A794C00931559029946
:10D35000784E691A09023078090A033100281FD172
:10D360008020D1274002BF00D051403FD051C02380
:10D3700080277148BF025B00C750076001272F203C
:10D3800017600138C046C046C046C046C046C046C9
:10D39000C046C046C046C046C046C046F1D1377000
:10D3A000009B8B4200D20B00A8200299C0005B18A2
:10D3B0001B021B0A13501159491B0902090A5D1B64
:10D3C0002D0203312D0AA94214D9135913502F20CD
:10D3D0000138C046C046C046C046C046C046C046EA
:10D3E000C046C046C046C046C046F1D18022534B1D
:10D3F00092025A6000224C4B1A700BB0F0BD0270C2
:10D400003DE7009246E702990398C900401804904E
:10D410000398415C04984078884200D14FE7182077
:10D42000049E4843776801313818B778C9B28F42F3
:10D4300000D100210778022F08D0032FEAD1002B5A
:10D44000E8D0002025001874DB69F8E740681F0069
:10D45000844618000028DDD06646864200D1B3E03D
:10D460000700C069F6E71C68944206D9002901D07C
:10D470002A490B60A21A1A6041E7121B0019DC68E6
:10D48000DF691E60002C07D0DD611D0005999C60DE
:10D4900009180902090A59603B000099002BE2D1E2
:10D4A000002900D12BE71D4A136028E700210D0059
:10D4B00008000E00F2E70026019BD800039B181815
:10D4C000002D3DD144780378A34200D123E71821F1
:10D4D00059434768013379188778DBB203709F425C
:10D4E00000D106700B78012BEDD14B681F7C002F0B
:10D4F000E9D18C685C60CC689C600C69DC6049692F
:10D500009961079900291DD05F601BE0B0220020BF
:10D51000AD220020AC220020A4220020B82200204E
:10D52000B4220020BC220020A022002000100140D4
:10D5300004050000A122002000E100E0FCE100E081
:10D540002B00ED695968029C06910C1B2A492402A4
:10D550009F68240A8C4212D8E4191C6001215E6085
:10D560009E601974DE61002A06D01C6811688C4226
:10D5700024D80C1B1460DA61012204921CE0029989
:10D58000069C091B0902090AB94202D27F1A1F60D0
:10D59000E4E71E60E2E7E41BCF698C46002F07D06A
:10D5A00039000F68A742F6D33F1B0F600F0061469A
:10D5B0001C60DF61CB6113001A0081E79446110003
:10D5C000EFE7FFF769FD15E7B84209D1DB692500F0
:10D5D000002B05D1094DAC602500079308940994F0
:10D5E0000668C069F861002800D113E737000668B3
:10D5F000B446674407600DE7FEFF7F00001001405E
:10D60000F0B50326150085B0140002900191039334
:10D610003540324203D1244F002A02D13D60072514
:10D620003EE0FFF739FD214B039A18211A602200D2
:10D630001F4B18321E70019B100059432B003C6099
:10D64000019E626023706370A67008345218844291
:10D65000F6D1184A80201360174AC5241370174A60
:10D66000FF211370C022164B400352009850A400B3
:10D670001A598A431100C0220A431A51A122186084
:10D6800002991048D2008150043C1A590E491140A9
:10D69000C02212020A431A510C4BC2580C4B1A609A
:10D6A000280005B0F0BDC046BC2200209C2200200E
:10D6B000B4220020B8220020AC220020AD2200209D
:10D6C00000E100E000100140FF00FFFF0405000042
:10D6D000B022002010B50300094804680820002C7F
:10D6E0000CD00138002A09D0002B07D01B6801306C
:10D6F0001C7C002C02D1200059745A6110BDC04618
:10D70000BC220020F0B51D4B85B01D6804000E0042
:10D7100008200192002D2FD0002C2DD00138042993
:10D720002AD963690130002B26D0637C0091012B3C
:10D7300001D000230093FFF7FFFC02ABC000DF1D08
:10D740002D1839002800FFF7E3FC03000420002B0C
:10D7500012D001220A491A700A4A5C608A580020D5
:10D760009A60009ADE601A61019A5A6180223B78C1
:10D7700052036B70044B5A6005B0F0BDBC22002010
:10D780000010014004050000FCE100E0F7B5134B78
:10D7900004001D680820002D1ED0002C1CD06369D9
:10D7A000002B19D000262674FFF7C6FC6B46C0007C
:10D7B000DF1D2D1839002800FFF7AAFC0300042004
:10D7C000B34209D002221A70802230005C603B789C
:10D7D00052036B70024B5A60FEBDC046BC22002053
:10D7E000FCE100E070B500240125174B1B78A34233
:10D7F00000D870BD2900154AE3001268D05CD61825
:10D800008140134A136819421AD08B43136000F009
:10D81000EBFA2900020030780E4B81401B680B4068
:10D82000110081408B420BD17368002B08D07178B6
:10D8300001394E427141891A4A425141C9B2984751
:10D840000134E4B2D1E7C046C0220020F02200201B
:10D85000EC220020E8220020F8B5124E070030002C
:10D86000FFF794FF002817D10124BC400E4D2B6810
:10D870001C4214D1380000F0B7FA0C4A1368002893
:10D880000BD0234313602B6800221C43084B30004D
:10D8900019682C60FFF736FFF8BDA343F2E7A343F6
:10D8A0002B60F9E7C8220020EC220020E8220020AB
:10D8B000C422002073B505000C0016000720042ABE
:10D8C0001DD900F0DDF9002815D0164B164A1D6051
:10D8D000164B1C70164B013C1E6000230326136080
:10D8E000144AE4B21360FF2C0AD10021124A1348F3
:10D8F000FFF7F0FE03E000F099F90028E5D076BDCF
:10D90000002201A9E300EB180E704A809A7818787B
:10D910004A700B4A00F0BEF9013CE4B20028E2D0A4
:10D92000EDE7C046F0220020E8220020C0220020BF
:10D93000C4220020EC220020E5D70100309D020027
:10D9400059D8010010B50024074B1B78A34201D819
:10D95000002010BD054BE2001B680121D05C00F0E7
:10D96000FDF90134F0E7C046C0220020F02200207B
:10D970001FB5002101AA906003481180516000E0AA
:10D9800000BF05B000BDC04601400000F0B5030077
:10D99000186880F308885868FF2464B2EFF305859F
:10D9A000002D01D1A6460047251C061C21273FBAA1
:10D9B000F0B40024002500260027F0B4F92040B27E
:10D9C0000047C046F0BDC046AADF704744DF70473D
:10D9D00011DF704713DF704700DF704770470000AA
:10D9E000F0B50B788DB0002B00D086E06B46474C2D
:10D9F0009A1D21000823078813803431073B380023
:10DA0000FFF7E2FF424B1B689847B120FFF7DEFFAC
:10DA1000002801D0FFF7ACFFFFF7DAFF002801D0A4
:10DA2000FFF7A6FF3B4D6869FFF7D4FF002801D040
:10DA3000FFF79EFF0023384E38003100029302F0BA
:10DA4000F7F9002836D1300006A901F0ABFF002815
:10DA500047D10A9F0722390020001031FEF7DDFE72
:10DA600039001022E01DFEF7D8FE2000069F11228B
:10DA700039001830FEF7D1FE200039000A222A3082
:10DA80001231FEF7CAFE2000FFF7A6FF002801D0E2
:10DA9000FFF76EFF012302930333049302AB059358
:10DAA0000023300003A9039301F0FAFD002801D000
:10DAB000FFF75EFFC0228021184BC9035200995026
:10DAC000196801200023164C02009A40114200D030
:10DAD000E2670133202BF7D16869FFF757FF0DB0DC
:10DAE000F0BD2100300001F017FF002801D0FFF742
:10DAF0003FFF2000FFF770FFD8E70322012100F06D
:10DB00002BFF0028EBD0FFF733FFE8E7F8220020D7
:10DB10005022002000100010F422002000E100E05C
:10DB200004E100E0014B18607047C046502200201D
:10DB300007B56B46D87107331800044901F0CEFED3
:10DB4000002801D0FFF714FF07BDC046F4220020D3
:10DB500082B00190019B002B01D102B07047019B64
:10DB60000848013B01930138C046C046C046C04644
:10DB7000C046C046C046C046C046C046C046C04675
:10DB8000F1D1E7E7E703000030B5FF2503232C00C0
:10DB90000340DB009C4089012940E4439940C2B224
:10DBA000002814DA0F231340083B0E489B089B0003
:10DBB0001B18D86904402143D9611F23C0211A4092
:10DBC0001E3B9340084A49005350136030BDC025A6
:10DBD000054B80088000C018AD0043591C4021430C
:10DBE0004151EAE700ED00E000E100E0A023800001
:10DBF000DB05C018E02310B5DB00C258034C090454
:10DC00002240C250C2581143C15010BDFFFFFCFF5B
:10DC10000122054B81005242CA50032802D91B1829
:10DC20003C331A707047C0463423002070B5124D43
:10DC300008202B0044331C78002C1CD12A00230020
:10DC4000FF212032D1540133202BFBD1200001349D
:10DC5000E4B2FFF7DDFF082CF8D103210620FFF71F
:10DC600093FFC1238021054A9B000906D15001235F
:10DC7000002044352B7070BD34230020006000402C
:10DC8000034B44331878431E9841C0B27047C046D6
:10DC900034230020F0B594462D4A030010180130BB
:10DCA000C47F08207F2C09D9CF780424002F01D00D
:10DCB00000240438264A844201D10420F0BDA50086
:10DCC000AE58013630D1D0180130C477604650517B
:10DCD000002F02D112193C3213708A78002A25D005
:10DCE000A020E0270226C0059A001218FF00D05994
:10DCF000B043D051C8780A78002820D01549164C76
:10DD00006D18A221C90068581B0220406850F820F5
:10DD100040010340C020120480026C5802401343AB
:10DD2000234300206B50C9E70134C4E71A00A02741
:10DD30004878C132FF3280009200FF05D9E7044BDA
:10DD400092011C193C3423781A432270B6E7C0466E
:10DD50003423002000600040FFE0FCFFF8B51F23E3
:10DD60001F4D2C180134E356032B18DDEB183C3300
:10DD70001978890903290BD1A022A223D205DB003F
:10DD8000D258012383401A4207D0FFF72FFFF8BD76
:10DD900001394B1E99410231F7E70221F5E7DAB26A
:10DDA000032AF4D8A2270F489A0012180120FF0076
:10DDB000D6590643D6511A0000274032094E920028
:10DDC00092B29751B942E2D01F22A2569200525904
:10DDD000BA42DCD09840C1239B00F050D7E7C04640
:10DDE0003423002000600040A022A223D205DB00E3
:10DDF000D358C3400120184070470000F0B50024FC
:10DE0000C125012226004D4B4D484E4985B0AD003D
:10DE10001F68012F04D147593A4201D01E601443B4
:10DE2000043352008B42F3D10022474B00921A6810
:10DE3000012A0AD100221A6080231B06A0221C435B
:10DE4000A223D205DB00D3580093230716D0A227C4
:10DE500001260025FF0026420CD0394AAB009A1853
:10DE6000D059D1590322090C1140384AC0049B589B
:10DE7000C00E984701357600042DECD1002C5BDAFA
:10DE800001235B4203930023019300252F002F4BB6
:10DE90001A004032D457621C41D0E4B2C02226009E
:10DEA0009643039A0121F2400A4238D09A19521837
:10DEB000D27FA40952B29200D3580293002B01D111
:10DEC000032C2CD10122B240032C02D1019B13431D
:10DED00001933300A021C133FF33C9059B005B5878
:10DEE00000999B039B0F0A420ED0022B17D1032CE3
:10DEF0000FD1210030000135FFF778FEEDB208E0C8
:10DF0000019A00930392C0E7032B08D10221032C4E
:10DF1000F0D0029B002B02D021003000984701373F
:10DF2000042FB4D1002D07D0A022A223D205DB00FC
:10DF3000D358009A9A42E3D105B0F0BD0061004089
:10DF400000600040106100407C61004034230020EC
:10DF5000014B18707047C0467C23002071DF70476A
:10DF600072DF704779DF70477DDF704765DF70478C
:10DF7000F0B5002506002F0089B001930EAB10CB41
:10DF800004911B8803920593238802933388BB4234
:10DF90000EDC0020854209D02388029A013B9B1A9F
:10DFA0009BB2FF2B3ED8019A0299535409B0F0BDA1
:10DFB0007368B9005918042207A8FEF72EFC06ABB7
:10DFC0000022D91C07A8FFF7D1FF0028EED106AB2D
:10DFD000DB78039A934223D169426941238849003F
:10DFE0009A18521805998A421CDC002D08D1019A12
:10DFF000049901339BB22380D154238801332380B9
:10E00000019B228807A89A1806ABDD1C2900FFF7A0
:10E01000ADFF0028CAD12B78012522889B182380C8
:10E020000137B3E70C20C1E7F0B51D0085B00AAB9E
:10E0300040CB03921F8802222B0001970096040018
:10E04000FFF796FF002807D12B001022200003992C
:10E0500001970096FFF78CFF05B0F0BDF0B513886F
:10E0600087B0029300231380436B07000D00140058
:10E07000002B15D0029A022A01D80C2086E11A78CA
:10E0800002230B701121238801339BB22380E954B2
:10E09000238801339BB22380EA54238801332380F1
:10E0A0003A6B002A1CD02388029819001231814251
:10E0B000E3D81121E9542388013901339BB223802D
:10E0C000E95423880133238013000F331878218803
:10E0D00068542188013121801900013B8A42F5D121
:10E0E0003B002E331878002821D023880299DA1CAF
:10E0F0008A42C2D802221C21EA54238801339BB2EF
:10E100002380E9542388411E01339BB207202380DA
:10E11000032900D93AE1080008F05AFA0400250161
:10E12000050027010022EA542388013323803B00A5
:10E130002D331B78002B2DD02388029A09330C2015
:10E14000934200D922E104AE3000FFF707FF002818
:10E1500000D01BE1082209212388EA5423881332C6
:10E1600001339BB22380EA54208802AB013080B295
:10E170002080153AC9182818FEF74FFB23883278FB
:10E1800006339BB22380002A00D0F0E0EA542388B3
:10E1900001332380BB78002B22D02388029A0433DA
:10E1A0000C20934200D9F1E004AE3000FFF7DAFE14
:10E1B000002800D0EAE003222388EA54238816329C
:10E1C00001339BB22380EA542388328801339BB207
:10E1D0002380EB181A70120A5A70238802332380A6
:10E1E000FA78002A15D023880298D91C814200D9D8
:10E1F00043E70221E9542388013901339BB223808C
:10E20000E95423885B189BB22380EA5423885B1867
:10E2100023807A68002A17D023880298D91C81426B
:10E2200000D92AE702211278E95423880831013302
:10E230009BB22380E954238852B201339BB22380DE
:10E24000EA542388013323803B89002B00D090E0DF
:10E250003B8A002B0CD03800029B0722019303213C
:10E260002B0000941030FFF7DFFE002800D08DE077
:10E270003B8B002B0CD03800029B152201931421FC
:10E280002B0000941830FFF7CFFE002800D07DE06F
:10E290003B6A002B00D07BE07E6A002E2ED0B38834
:10E2A0002188981C8A1C12189446029A944500D919
:10E2B000E3E6FE2800D9E0E6FF2203336B5423880F
:10E2C00001339BB22380EA54238801339BB223801D
:10E2D0003288EB181A70120A5A702088023080B205
:10E2E0002080B288002A09D0B168002959D02818A6
:10E2F000FEF793FA2388B2889B1823803B002C33C7
:10E300001B78002B00D083E03B78181E3ED03A8863
:10E310000720012A3AD022880299901C884200D90D
:10E32000ABE6012B06D17B78029902339B18994208
:10E3300000D2A2E6029E02AB023EB61AB6B228187E
:10E3400004A91E81FFF710FE00281FD13B78022B85
:10E3500000D09AE002AB1B890922B34200D89EE0AC
:10E3600002AB1E819AE00122DDE60322DBE60122F8
:10E370000CE73800029B0622019302212B00009437
:10E380000830FFF751FE002800D161E707B0F0BD6B
:10E3900026880299B21D8A4200D96EE6198805299D
:10E3A00001D80720F2E746480A1892B20392454A7C
:10E3B0009446039A6245F4D95A88052AF1D910186F
:10E3C00080B26045EDD94048814203D0824201D0FD
:10E3D0009142E6D805221221AA552288013292B232
:10E3E0002280A9542288013292B222801988AA1868
:10E3F0001170090A51702288023292B22280598823
:10E40000AA181170090A517023880233238043E748
:10E41000BB6A002BC5D0002303933B002C331B7831
:10E42000039A934200D86FE70C26039B5E43BB6AB6
:10E430009E19B3889A1CFE2A00D91EE6228803334F
:10E44000AB541622238801339BB22380EA542388DD
:10E4500001339BB223803288EB181A70120A5A706B
:10E460002088023080B22080B288002A09D0B168AA
:10E47000002996D02818FEF7D0F92388B2889B1877
:10E480002380039B0133DBB2C6E7012B00D067E793
:10E490007B789E4200D263E702AA1381082202AB76
:10E4A0001989FE2900D9E8E523880131E954238838
:10E4B00001339BB22380EA5423885918218065E7F1
:10E4C0007FF3FFFF7DF30000FFFF0000F0B593B086
:10E4D0006A461F2301AE971D04000D0033803B8068
:10E4E000002820D0C3785B0702D4072013B0F0BD0A
:10E4F000320002A9FFF7B2FD02AC0028F6D1002DD0
:10E5000013D0EB78002BF0D128003A000AA9FFF7CE
:10E51000A5FD0AAD0028E9D12A0020003B7831781A
:10E52000FFF71EFDE2E73080E9E73D80F4E775DFA5
:10E53000704776DF70477ADF70477BDF70470000F7
:10E5400013B5164B1888164B984211D0154A164C25
:10E5500013780133DBB21370217B994209D313493D
:10E56000FFF7E5FF002803D0A369002B00D09847F0
:10E5700013BD00231370237C002B08D03B21FFF731
:10E58000D8FF002803D0A369002B00D09847636907
:10E59000002BEDD0002201A80270E8E77E230020C6
:10E5A000FFFF0000CC23002080230020C423002094
:10E5B00037B5184B184A5B881188184C184D99428A
:10E5C00008D852889A4205D36369002B1ED10023D4
:10E5D0002B7037BD2B78002B06D06369002BF6D04B
:10E5E000002201A802700DE00E4B1B78002B0BD10E
:10E5F000616800220C48FFF785F80028E7D0A3697E
:10E60000002BE4D09847E2E7A168F2E7012201A8D5
:10E61000E8E7C046BC230020C4230020802300205C
:10E620007D230020CC2300209C23002014490200DD
:10E630000B0070B532CA32C332CA32C31268114CF1
:10E640001A600022104B01681A70914214D0200009
:10E650000832FEF7E2F82000FFF76DFF00280AD12C
:10E6600001220021094B52421A80094B094A0A48EB
:10E670001970FFF72FF870BD2000FFF75EFFEDE780
:10E6800080230020C42300207D2300207E2300203F
:10E69000CC23002041E50100349D020010B5024862
:10E6A000FFF774F810BDC0469C23002010B5038806
:10E6B000122B3ED004D8102B16D0112B27D010BD12
:10E6C000502BFCD11E4CC188E2899142F7D1038ABC
:10E6D000022BF4D1837CDB0716D41A48FFF756F8D7
:10E6E0000028ECD0A36920E001008288164B17486F
:10E6F0001A8018310822FEF790F80022144B1A7085
:10E700000F4BDB899342DAD1FFF752FFD7E70122A3
:10E710000D4B52421A8000220D4B0A481A70FFF727
:10E7200035F80028CBD0064B9B69002BC7D0984703
:10E73000C5E70100082208310448FEF76EF8E3E758
:10E74000802300209C2300207E230020BC23002067
:10E75000CC230020A0DF7047A2DF7047A5DF704701
:10E76000A6DF7047A8DF704763DF7047F0B597B04A
:10E7700006000E240091002800D1DDE0002900D120
:10E78000DAE04B680193002B00D1D5E001235B4216
:10E79000038010226A4906A8FEF73FF80A2102AA60
:10E7A000684B891806A81381FFF7DEFF041E00D00E
:10E7B000C2E00120321D04A9FFF7CCFF041E00D0E7
:10E7C000BAE002AB9B7A0FAD01001C22B3712800A6
:10E7D000FCF710FD04232A7803AF13432B70B379A1
:10E7E00002AA9373584B21009381380003226C6076
:10E7F000EC602C616C61AC61FCF7FCFC88231F228F
:10E8000003205B013B80BB782100934303430B3A19
:10E810000AA8BB70FCF7EEFC0C9414210E94340093
:10E8200005AA0A9202AA9185083423002900B0881B
:10E830000AAA0B97FFF790FF041E00D07CE00100AE
:10E840001C222800FCF7D6FC18232A7821009A43C2
:10E8500013432B70B37902AA93733C4B3800938116
:10E8600003226C60EC602C616C61AC61FCF7C2FC53
:10E870001F238821BA7849019A430C3B1343BB708C
:10E880000AAB1422180039802100FCF7B3FC1723CF
:10E8900005A90A9102A90C948B8533000AA90A00E4
:10E8A000B088290010330E940B97FFF755FF041E14
:10E8B00042D101001C222800FCF79CFC02212B788D
:10E8C00003220B432B70B37902A98B73204B3800C2
:10E8D0008B8121006C60EC602C616C61AC61FCF799
:10E8E00089FC11231F2203203B80BB782100934326
:10E8F00003430B3A0AA8BB70FCF77CFC022305AA71
:10E900000A9202AA0C939385009B29000E93330070
:10E91000B08820330AAA0B97FFF71EFF041E0BD105
:10E92000009B5B68B3620193009B9B68002B00D047
:10E93000F3620122074B1A70200017B0F0BDC046E9
:10E94000389D02003015000032150000311500001E
:10E9500034150000CD230020F0B51300050087B06A
:10E960000E20002D22D02C88114A063894421DD04A
:10E97000104A1278002A19D00F4E10227170694681
:10E980008F1D032102AC398020000021B37032704A
:10E99000FCF730FC2B8A210023800123A370002385
:10E9A0002888A380A760E660FFF7DAFE07B0F0BD15
:10E9B000FFFF0000CD230020CE230020F0B504008F
:10E9C0000D008BB000280CD000290AD0826A002AE2
:10E9D00007D00B88502B48D005D8102B42D0112BD4
:10E9E00051D00BB0F0BD512BFBD18A790192022A94
:10E9F000F7D10A89038A9A42F3D18B7B043B022B1D
:10EA0000EFD9019B06AF3B700123BA7903AE1343E4
:10EA1000BB710B8A08223B814B8A30007B810B0043
:10EA200000211433FB60FCF7E5FB019B32000393EC
:10EA3000A18A02AB20887360FFF790FE002825D0E2
:10EA4000E36A002B00D09847FE233900FF3320886B
:10EA5000BB80FFF787FE0028C3D0E36A002BC0D03D
:10EA60009847BEE78B882380BBE7C9880389994212
:10EA7000B7D1082302A90B742B8A12350B760795A0
:10EA800006A99047ADE701235B42ECE702AB1B7898
:10EA90002088DB07D8D500233900BB80FFF762FE52
:10EAA0000028DAD1297D481E07283BD807F07CFDD5
:10EAB0000418202325273829002333706B8A012B63
:10EAC00005D8062201212000FFF746FFC3E70123F6
:10EAD00015353372756031002000A36A984780E7CE
:10EAE000012333706A8A9A42F2D806220221EAE7A9
:10EAF00002233370EFE70323FBE70423F9E7052341
:10EB0000F7E76B8A022B02D803220821DBE7AA7DF4
:10EB10006B7D12021343B3805A4253410633E8E738
:10EB20000923E6E70322CEE7A0DF7047A2DF7047A4
:10EB3000F0B591B00F00160001900093002902D1AA
:10EB40000800FEF715FF002E02D13000FEF710FF7F
:10EB500002251C22002109A8FCF74CFB02AB1B7FFD
:10EB600002AA2B4313770123002493711300019A07
:10EB700021009A80180003220A940C940D940E949C
:10EB80000F94FCF737FB009B02AA1B78210013703F
:10EB9000009B5B78537093781F2293432B4302AA08
:10EBA00004AD937028001422FCF724FB03AB0493FC
:10EBB00002AB6B60064B2A00188809A9169B2E81B0
:10EBC0006C81AE812F61FFF7B1FF11B0F0BDC0467F
:10EBD0000E24002030B587B06B46040001206A4641
:10EBE0009873534B03A99381524AFFF79DFF051E6B
:10EBF0004CD12288002A4CD12289002A09D04E4BC0
:10EC0000E168009323004D483C33FFF791FF002853
:10EC100049D1228A002A09D0494B61690093230017
:10EC200048483C33FFF784FF00283CD1228B002A60
:10EC300009D0454BE1690093230044483C33FFF77A
:10EC400077FF00282FD1228C002A09D0404B616A1F
:10EC5000009323003F483C33FFF76AFF002822D18E
:10EC6000228D002A09D03C4BE16A009323003B48E7
:10EC70003C33FFF75DFF002815D1236B002B14D127
:10EC8000616B002930D1A36B002B39D1280007B06C
:10EC900030BD334B61680093230032483C33FFF7AB
:10ECA00047FF0028A8D00500F0E71A6804A90A70F9
:10ECB0001A682D48120A4A701A68120C8A701A686B
:10ECC000120ECA705A680A719B681A0A4B711B0CA3
:10ECD000CB71264B8A710093230008223C33FFF747
:10ECE00027FF0028CCD0DEE7214B0A7900932300D0
:10ECF000096820483C33FFF71BFF0028C3D0D2E748
:10ED00001A7804A90A705A881B484A70120A8A7035
:10ED10009A88CA70120A0A71DB88184A4B711B0A5A
:10ED20008B71230000923C330722FFF701FFBAE703
:10ED30000A1800000E240020EE230020242A0000E0
:10ED400006240020252A0000DE230020272A0000B8
:10ED5000D6230020262A000010240020282A0000A4
:10ED6000E6230020292A0000232A0000182400207E
:10ED7000FE2300202A2A0000502A0000F62300204B
:10ED8000A0DF7047A2DF7047A3DF7047A4DF7047A2
:10ED9000A6DF70470B0037B500280AD0002908D03D
:10EDA0000A88112A06D0502A07D0102A01D18B8850
:10EDB000438237BD01235B42FAE7027D002AF8D087
:10EDC000CC8841898C42F4D11A8A022AF1D1046894
:10EDD000002CEED0DD7C9A7C01232D022A4301A970
:10EDE00093430B70A047E4E7F0B507000E000E2434
:10EDF00093B0002800D1ACE0002900D1A9E00B6855
:10EE0000036001235B4243820A79037402756B46F7
:10EE100001206A469874514B04A913823A1DFFF7EA
:10EE2000AFFF041E00D094E03B7D002B10D002AD5C
:10EE3000032201002800FCF7DDF9112306222B70C4
:10EE4000737B6B70AB7893431A0002231343AB7050
:10EE50001C2200210BA8FCF7CDF92C246B460225BF
:10EE6000012110201B193A7D1B7811402B43090109
:10EE700083430B43694609190B70511E8A4102AB4B
:10EE80005242134010936A46012300249375344B79
:10EE90002100938203A803220C940E940F941194E2
:10EEA000FCF7A8F96A46B37B68461373F37B21002D
:10EEB0005373937B1F2293432B438373337B06ADA2
:10EEC000C3700B3A2800FCF795F905A8069003A833
:10EED0006860684601230330AB81286108932A00EB
:10EEE000B888BB1D0BA9FFF74DFF041E31D1B068D8
:10EEF000002831D06846012383751A4B2100838294
:10EF0000032203A8FCF776F968461F210222337C0E
:10EF100044730373837B8B4313438373B16801A8EA
:10EF200000F062F80600210014222800FCF762F9C4
:10EF30003A0005AB2B6003AB6B60B6B201AB6C81E2
:10EF40002E81AE812B612900F8880E32FFF71CFF5D
:10EF50000400200013B0F0BDFC81FAE70F18000098
:10EF6000192A00000829000070B588B06B4604001B
:10EF7000DD1D0E20D971002C31D0227CCBB20020B7
:10EF80009A422CD001260100082202A8FCF732F98F
:10EF9000E188608A02AA02960395FFF7F7FE00282F
:10EFA0001DD12B78628A23740E4B08309A4216D0FA
:10EFB000237D002B13D004AD002110222800FCF784
:10EFC00019F9E388AE702B806B465B892900AB8012
:10EFD00002ABAB60039BEB60608AFFF7D9FE08B021
:10EFE00070BDC046FFFF00000B7803704B78437084
:10EFF0000220704770B5040008000D00FCF77CFD8E
:10F000006560208070BD000070B52B4A1368DBB2CC
:10F01000012B03D129490B681B0700D070BD284B79
:10F02000F0201C68E0262500054034423DD1254CE7
:10F03000246804420DD12448244C046080242448D0
:10F04000240204601068C0B20128E7D108680007F4
:10F05000E4D1F02418682040402810D119480068F5
:10F0600020420CD18024C1200125E405C000255098
:10F070001268D2B2AA42D1D10A681207CED11A6858
:10F08000F0231A40A02A13D10E4A12681A42C5D1A1
:10F09000104B1A68012A04D00F4A1A601A68012A14
:10F0A000FCD1C0220D4B1A60B8E7302DBFD0D0E79D
:10F0B000D02AB3D1E8E7C046E00F00F0E40F00F03B
:10F0C000E80F00F0EC0F00F004050040DFFF07C080
:10F0D000186C004000EC06407593000014EC0640EC
:10F0E0007FDF704786DF7047A7DF7047A9DF704773
:10F0F000AADF70470020704700207047002070474B
:10F10000F7B504000D006A468178214801F01AFC29
:10F1100000283BD10C2362781E4F53431E4AD3185C
:10F120009B7A5B0605D4022D03D01C4F012D00D025
:10F130001B4F1C26A1781B4B71433200C91868462F
:10F140000023B84700281FD1022D1FD00C234021D7
:10F15000627868465343104AD3189A7A8A439A725F
:10F160006378114973433200C9183300B8470C2340
:10F17000227821005A430D4B68469B189B7A0C4A13
:10F180009B009B58984701E0022DF0D1F7BDC04687
:10F190007C250020090A0200642400209109020055
:10F1A000F5F00100B8240020482400203C24002071
:10F1B0006C9D0200F7B524210190437828485943FB
:10F1C00042185468274F002C31D00C225A43BA18E9
:10F1D000957A927A52B2002A28DA6A0626D40D006D
:10F1E000A6B208350C5845190C225343FB18188950
:10F1F000320023002900FFF779FF0B281AD10C22D7
:10F20000019B29005B785343FB18188932000123C6
:10F21000FFF76CFF0C21019B134A5B784B43FF18EF
:10F220003889FFF761FF00280AD1FEBD00242600BF
:10F230002500D9E7002800D00C48012CF5D1E9E7DA
:10F2400002220B4BC318934308D0082806D011386C
:10F2500043425841054B40421840E6E70348E4E783
:10F260007024002064240020FFFF00004180000083
:10F27000FECFFFFF10B5FFF79DFF10BD1A23F0B5BD
:10F280000C278BB002AA019053804B78254A7B4310
:10F29000D31802AA0E0018890232032303A9FFF72C
:10F2A00027FF00281BD1242570781F4C684302AB30
:10F2B00008305A88201803A90AF034FA7378002815
:10F2C00010D15F43174AD719B87A022201001140C2
:10F2D000104204D16B432A00E018FBF78BFF00209B
:10F2E0000BB0F0BD5D4365196A68104F002A00D16C
:10F2F0000F4F242503226B43E25002AB5A887378E8
:10F3000003A96B43E3185A607078684308302018EB
:10F31000FDF783FA7178382369432A000198611850
:10F32000B847DCE76424002070240020090A0200AA
:10F330009109020010B5FFF7A1FF10BDF8B5242513
:10F3400007004878094C68430E0038232A0039002A
:10F35000201801F095FB002806D173785D436419ED
:10F360006368013300D16060F8BDC046702400209E
:10F3700010B5FFF7E3FF10BD002070470020704775
:10F38000002070470020704770B51C2444430500DE
:10F3900020000F4E1130A419801906220021FBF71E
:10F3A00029FF102200212000FBF724FFFF232374F4
:10F3B000A376013BFF3B23830233AB40054AAD00FC
:10F3C0001168994311600022034BEA5070BDC0469A
:10F3D000B8240020B42400202024002037B581B2B6
:10F3E00005006A46074801F0ADFA041E08D17421F1
:10F3F000684601F08FFB041E02D12800FFF7C4FF0E
:10F4000020003EBD7C250020F0B51D00474B95B087
:10F410001B68060017000191002B33D01A9B742B38
:10F4200030D80024424B0B95039302AB1C741A9BFB
:10F430000A934048A1B204AA01F084FA002823D11B
:10F440000822300004A90AF06DF900281CD103AB92
:10F450009C7003AEB378FF2B14D0019A06AC032A3C
:10F4600018D11A9B742B13D1543B23700323227899
:10F470001343237009AB63602C4B3A00210030002A
:10F480001B68984715B0F0BD0134072CD1D1E0E7D7
:10F490004023EAE7284AAA1AC32A12D80120984032
:10F4A000264903000A68100018403843EAD09A43FE
:10F4B00020230A602370019B2278022B34D1012380
:10F4C000D6E71F4AAA1A1B2A07D8002220237270E7
:10F4D0000CAA23700B920A93EDE71A482A1A232AE2
:10F4E00011D8302302AA1374002373700133F37010
:10F4F000154B9A7A0223110019401A42DBD12422BB
:10F50000FBF778FED7E740222270104A9542ADD033
:10F510000F4A99008A589542B4D10B4AD27A9A423E
:10F52000C9D100237370C6E70223A1E73C24002061
:10F5300000FFFFFF7C250020B8240020B424002019
:10F54000482400207024002064240020489D0200EC
:10F5500020240020F0B5040085B0002852D00025FA
:10F56000294B2A481D605D729D7201235B42038115
:10F57000FE3B072229004381FBF73CFE24222900A1
:10F580002348FBF737FEFF262800FFF7FDFE214B3F
:10F59000EE540135072DF7D11F4B204D0193204B21
:10F5A00029006846009301F06DF9031E19D11D4E24
:10F5B000247801333370002C1AD11C272800A1B203
:10F5C00002AA01F0BFF9031E09D138006043164AB0
:10F5D00002A980181C2201F053FA031E04D0002255
:10F5E0003270180005B0F0BD0134072CE6D1F8E701
:10F5F0006B469988DB882800594389B201F08AFA62
:10F600000300EEE7094BECE73C24002064240020D3
:10F610007024002094240020740007007C25002022
:10F6200009F40100B2240020B82400200E8000005C
:10F63000F8B5164B07001B780E00002B20D00028D1
:10F6400020D000291ED00B68002B1BD0104D2C6839
:10F65000002C19D12800052208C00531FDF7DDF87E
:10F6600033790721AB720323EA7920008A431343DD
:10F67000EB7102232A7A8A4313432B723C70F8BD44
:10F680000448FCE70448FAE70448F8E7B2240020FD
:10F690003C240020088000000E8000000480000050
:10F6A0007FB52D4B05001B780C00002B51D0002896
:10F6B0004BD0002949D08B68002B46D00378002B13
:10F6C00047D1264B1B68002B43D0817806293ED8B2
:10F6D0001C224A43224B9B189B7EFF2B37D00C23C6
:10F6E00042785A431F4B9B189B7A1B0731D563689E
:10F6F0000720032B27D91C4889B202AA01F022F95E
:10F70000002820D16023042202A901A801F0B8F941
:10F71000164E002803D1019B013300D0144E602304
:10F720000422211D02A8B04700280CD16423102216
:10F73000A16802A801F068F9002804D1AB78A1689B
:10F740000C4A9B00995004B070BD0B48FBE70B4876
:10F75000F9E70B48F7E7C046B22400203C2400201C
:10F76000B8240020642400207C2500209109020098
:10F77000090A0200202400200E80000010800000F2
:10F78000088000001FB5244B0C001B78002B3DD0D7
:10F79000002839D0002937D00378002B36D11F4BF1
:10F7A0001B68002B32D08378062B31D81C2159439B
:10F7B0001B4A5218927EFF2A2AD0A168194A9B0040
:10F7C00000291FD1D358A360817802AA164801F0FE
:10F7D000B9F8002814D16023042202A901A801F07D
:10F7E0004FF9002816D1019B013313D06423102256
:10F7F000A06802A901F044F9002801D1019B6360CF
:10F8000004B010BDD150DFE70848F9E70848F7E732
:10F810000848F5E70848F3E7B22400203C2400201C
:10F82000B8240020202400207C2500200E80000029
:10F830000880000010800000408000001FB51E4BB3
:10F8400004001B78002B32D000282ED00378002B28
:10F850002DD11A4B1B68002B29D08178062928D876
:10F860001C224A43164B9B189B7EFF2B21D0154828
:10F8700089B202AA01F066F8002814D1602304229C
:10F8800002A901A801F0FCF8019B01330BD0602311
:10F8900004220D4902A801F0B7F8002803D1A3788B
:10F8A0000A4A9B00985004B010BD0948FBE709487C
:10F8B000F9E70948F7E7C046B22400203C240020BD
:10F8C000B82400207C250020489D02002024002030
:10F8D0000E80000008800000108000000A4B1B789A
:10F8E000002B0ED000290AD0002808D0007800286C
:10F8F00007D1064B1B68002B03D0087070470448E3
:10F90000FCE70448FAE7C046B22400203C2400206B
:10F910000E8000000880000010B51B4B02001B7811
:10F920000800002B2DD0002A29D0002927D01478D8
:10F93000002C26D1154B1B68002B22D09178FF2973
:10F940000CD15378FF2B07D0F3394B4310490722D2
:10F95000C9188B7A9B070ED40E480FE01C2359431D
:10F960000D4B02225B18997E0C0014401142F3D11A
:10F97000103319000532FCF750FF200010BD074876
:10F98000FCE70748FAE7C046B22400203C240020E8
:10F990006424002005800000B82400200E800000B0
:10F9A00008800000F0B5244B06001B780C008BB0DB
:10F9B000002B3DD0002839D0002937D00278002A0A
:10F9C00036D11E4B1B68002B32D08378062B31D8E2
:10F9D0001C256B431A4FFB189B7EFF2B2AD0CA6055
:10F9E00083784A616B43DB190B61164B8A604B606D
:10F9F00003AB0B60817801AA134800F0A3FF002835
:10FA000012D12B002A0001A903A801F039F800281F
:10FA10000AD1E060B37860615D430A4BEF1963601F
:10FA200003AB2761A06023600BB0F0BD0748FBE784
:10FA30000748F9E70748F7E7B22400203C240020F4
:10FA4000B82400209B2400207C2500200E8000008C
:10FA5000088000001080000013B5040081786A4619
:10FA60000B4800F06FFF002810D11C226378094872
:10FA700053436946C018130001F002F8064B074AC9
:10FA80009B7A21009B0068469B58984713BDC0464F
:10FA90007C250020482400203C2400205C9D02009E
:10FAA000FF23F0B591B00393BD4B06001B78002BEC
:10FAB0003AD0BC4D2B68002B36D0031D06932C2367
:10FAC00005AF3B81B84BB94C00880493A37A10284A
:10FAD00026D0B28899070AD5B5498A4202D0218931
:10FAE000914204D1E17A04AA9170002151701E283C
:10FAF00000D98EE10F2817D910380E2814D806F037
:10FB000067FD0F002F0013006F004B001300130060
:10FB100013001300DC0029011300130013004C0133
:10FB20000122134200D051E111B0F0BDA14A5B089F
:10FB3000D35CFF2B00D003930822A17A039B0A43D6
:10FB4000DBB2A272E37202AA04A89372FFF784FFE9
:10FB500004E001361C37072E00D050E1002779E081
:10FB6000022219009143A1721B070BD54AB2002A49
:10FB700003DA002104A8FFF7C3FA1023A3720233AB
:10FB80003B70EBE702AB987AFF28F6D0FFF7FCFB5F
:10FB9000FF2302AA9372F0E7E27A874DFF2A06D08C
:10FBA000864900232A00B088FFF79CFABCE72900A9
:10FBB0000022308A0F8B87420DD10821D2B20B432D
:10FBC000A37204A8E2728270FFF746FFE37AFF2B6C
:10FBD000E6D10021E5E701321C31072AEAD1F8E736
:10FBE00013223A700F3A1A43A272E27AFF2A55D1D1
:10FBF0000027714B9A7EFF2A4AD11C202378784334
:10FC0000022B40D06C4B21001818FD23103083725A
:10FC1000F83AFCF702FE03AB1F700027039B04AA0F
:10FC2000DBB29370E37200211C230C91E27A0E91F7
:10FC30005343614A0F91D3180D93604B0991089378
:10FC40000A910B91B0882A1D08ABFFF749FA0028EA
:10FC500000D069E705AC2B683A00210004A898475A
:10FC60002378122B00D05FE75048837A012B00D114
:10FC70005AE701235B420381FE3B072200214381B7
:10FC8000FBF7B8FA50E74C4B1818FE238376C2E70F
:10FC900001371C33072FADD1494FC4E7442213432A
:10FCA000A37216233B70002385211A00B088FFF74A
:10FCB00017FA002800D037E750E701246A7A1800C5
:10FCC000A2436A7204223949904305AF1032887208
:10FCD0003A70377A002F07D05B0600D53EE7C87A26
:10FCE000FFF77CFB377AB5E70422737A134200D121
:10FCF00034E704AFBA78FF2A00D12FE70823034383
:10FD00008B72737B9B0706D51C2050432A4B1B1814
:10FD1000987EA0439876CB7AFF2B00D11EE71C2358
:10FD20005343254C0878E41802280DD02000072200
:10FD30001030FCF772FD0222A37E934301213800AC
:10FD4000A376FFF7DDF909E71C4B01225B8A2383C9
:10FD5000A37EF2E7327A112A12D11A0710D5194878
:10FD60001A2200210830FBF745FA16233B70A27ACD
:10FD70004A331343A37202236A7A13436B72EDE68C
:10FD8000802252421343A37215233B70AB7A0E4A72
:10FD90009B009B5804A89847E0E61323F0E6C04672
:10FDA000B22400203C24002000FFFFFF6424002038
:10FDB000FFFF000094240020B824002048240020E5
:10FDC00043800000702400204C9D02000223A37297
:10FDD0000F333B70002302AA5372B388072223819A
:10FDE00033000833190020000193FCF716FDF37D62
:10FDF000012201261E40134200D097E60A4F072237
:10FE00003800019909F08EFC002800D0A1E6039685
:10FE100092E6522800D087E6AB7A044A9B009B58B2
:10FE200004A8984780E6C046C82400204C9D0200E4
:10FE3000020030B5002912D00B78002B11D10A48EE
:10FE4000006800280DD0FF20084C88702589FA38FA
:10FE5000954203D118004B70E27A8A7030BD044895
:10FE6000FCE70448FAE7C0463C2400206424002054
:10FE70000E8000000880000052DF704710DF7047DE
:10FE800060DF704761DF704710B500E000BF10BD54
:10FE9000F0B5204B85B01B78DAB20192002B37D039
:10FEA0001D4D1E4E2B685C425C413268E4B2002A54
:10FEB00028D003A8FFF7E0FF052827D0002815D099
:10FEC000FDF756FD002CF4D1154B03A91B880B80C0
:10FED000144B1F683800FFF7D5FF05280ED0002807
:10FEE00008D0FDF745FD002CEED1E2E7039833681A
:10FEF0009847E7E738002B689847F4E7002C07D1CC
:10FF0000019CD6E7002B03D0019CDDE7002CFBD041
:10FF100005B0F0BD90250020882500209425002004
:10FF2000842500209825002070B5040007200029B2
:10FF300020D08D071ED112480160124920000A808E
:10FF4000114A12491360FFF799FF002812D10122CC
:10FF50000F4B10491A70C5239B00CB589B0D1342C1
:10FF60000BD080230C4ADB035468002C03D01168AB
:10FF70000B43136070BD0B60FCE70848FAE7C0460E
:10FF800098250020842500208C25002089FE010072
:10FF90009025002000E100E0782E002002200000E3
:10FFA00003000E20002B02D00020014A136070478E
:10FFB0008825002003000E20002B02D00020014ADB
:10FFC000136070479425002010B5064B1B68002B6A
:10FFD00005D09847002801D0FDF7CAFC10BDFFF7F7
:10FFE00057FFFBE78C25002070B5140005000E00BC
:10FFF000142200212000FBF7FDF8002201232261DA
:020000022000DC
:10000000227B23809A43227326726572002D00D0D2
:10001000A372002070BD00000020034B82B001934A
:10002000019B02B07047C0468020002007B5044BFA
:1000300069460193019B0093FFF722FF0EBDC04666
:100040008020002010B5064B586980235B05421CB8
:1000500004D0196989B206F0C5FA10BD5869FCE7E9
:100060000010001029DF704728DF704710B5034BE0
:10007000034A1B789B009B58984710BD952600208B
:100080007C9D02000B0037B50C24020018009D680F
:1000900009786C43044D08302D680095034D1B69A9
:1000A0006459A04737BDC0469C250020A0250020EC
:1000B000802210B55205116914220E4B89B21878AE
:1000C00042439B181A69501EDA881B898018C01891
:1000D00006F088FA084A0300126801209A4207D302
:1000E00000209A4204D1054B186843425841C0B2DF
:1000F00010BDC046AC2500207826002098260020A0
:10010000082310B5034A116899431160FFF7AEFF49
:1001100010BDC0467C26002010B509490A681307A7
:100120000AD4930702D5012313430B600222054B27
:100130001A70FFF79BFF10BDFFF7E2FFFBE7C04619
:100140007C2600209526002010B5064B1B681B0757
:1001500005D40122044B1A70FFF788FF10BDFFF78A
:10016000CFFFFBE77C2600209526002010B5002855
:1001700006D0112805D10823094A11680B431360E2
:1001800010BD1421074B1A7851430431C918FFF7E9
:1001900079FF0422044B1A7000F096F8F0E7C0468D
:1001A0007C260020AC2500209426002010B5FFF707
:1001B00059FFFFF7DBFF10BD70B514248025114BEC
:1001C0006D051A78104E54431C192B69216920893A
:1001D000E2889BB2401861699A420DD92C69A4B299
:1001E000141B2A69091992B292082018FFF7DEFF42
:1001F0002B699BB2336070BD9208FFF7D7FFE3888D
:10020000F8E7C046AC2500208C26002070B580257C
:10021000094B6D052A691B6894B2013B5C43FFF7EB
:1002200011FF2B69411E9BB25943044B20001A68F1
:10023000FFF7BCFF70BDC046782600208026002056
:10024000142270B580260E4B760519784A439B1808
:100250001A89DC881B693169A418E418200089B266
:1002600006F046FA0D00FFF7EDFE3369411E9BB222
:100270005943044B491920001A68FFF797FF70BDD6
:10028000AC2500209826002010B5FFF7DBFE802269
:10029000074952051369146909681269A4B26143D8
:1002A00092B2441E98B260439208FFF77FFF10BDE0
:1002B0007826002010B5034B1868FFF7D5FEFFF72E
:1002C00055FF10BD78260020F7B5284B1878032875
:1002D0000ED806F069F9020E11470023244A136074
:1002E000244A1360244B5B78002B01D000F0D8F82F
:1002F000F7BDFFF761FFFBE7142480271F4E7F0542
:10030000336800931C4B39691A7889B254431C191D
:100310002569280006F066F9194B019018603969C3
:10032000E088013D401989B206F05CF9019B8342E7
:1003300010D10123009A9A43DB1813430221114A7A
:10034000336012680B4013430F4A08D11170FFF756
:100350008DFECDE70323009A9A431300EEE70023B6
:100360001370F4E7FFF7A6FFC2E7C046942600200B
:10037000902600208C260020AC2500207C26002022
:1003800078260020802600209526002014230C20AB
:10039000F0B580243C4A85B0117864054B43D318EE
:1003A000DA681F8950430292384A21691218168967
:1003B00050895268704382180192DA881D69D319F6
:1003C0005B1900930023324E2800336089B20392F8
:1003D00006F08EF900290AD12369039A9BB29A424A
:1003E00008D0019B009A934201D1002F02D0029BBA
:1003F000022B0DD12169280089B206F0F3F8254BB4
:1004000018600323244A1370FFF75EFF05B0F0BDA8
:100410002169781989B206F06BF9204B89081960B7
:10042000009A019B2169934220D0100089B206F006
:100430005FF900291AD06B4621691F88236989B2A8
:1004400002936B46988806F0CDF86B460500198933
:10045000380006F0C7F8ADB280B2854208D16B46CD
:100460006A469B8812889B1A9B0833600223C9E75F
:1004700023692169380089B29CB206F039F989B242
:10048000641AA4083460F1E7AC250020A025002000
:100490009826002078260020942600208026002020
:1004A000142210B50A4B19784A439B18D988094A77
:1004B0001B791160012B05D0033B012B01D8FFF7FD
:1004C00065FF10BD044A1370FFF7FEFEF9E7C04652
:1004D000AC2500209C25002094260020F7B5124E64
:1004E0000193757808AC278804240A2D19D0347834
:1004F0006419092C00DD0A3C14235C433419626141
:10050000220020710C3209C909C2019B2781E380B6
:100510000024064B01351B787570A34201D1FFF70B
:10052000BFFF2000FEBDC046AC2500209426002061
:1005300070B51424114D0020297861430431491904
:10054000FFF7A0FD23000022012029784B43EB1880
:100550001A71DA80D8601A615A611A816B780918A9
:10056000013BC9B26B700A2905D02970044B1A707F
:10057000FFF7AAFE70BD2A70F8E7C046AC25002040
:1005800094260020142210B5074B19784A439B1873
:100590001B79042B02D0FFF7CBFF10BD0122034BC8
:1005A0001A70FFF791FEF8E7AC2500209426002092
:1005B000F8B5204F08233C6826001E401C4235D168
:1005C00080235B0519691C4B1D68002D1BD014226C
:1005D0001A4B89B2187842439B181A69501EDA8860
:1005E0001B898018C01805F0FDFF154B1B68984249
:1005F00009D1144B1E6001231C43134B3C601E7039
:10060000FFF734FDF8BDFFF753FD002806D00022A8
:100610000C4B1A600C4B02321A70F1E7002D02D01D
:100620000322094BF8E7FFF7ADFFEBE7FFF768FDA3
:10063000E8E7C0467C26002098260020AC25002054
:1006400078260020802600209526002010B5054B36
:100650001B681B0702D4FFF795FF10BDFFF750FD85
:10066000FBE7C0467C26002070B5184D2C68230798
:1006700028D4174A136801331360164B1B68002BEC
:1006800005D00422144B1A70FFF7F0FC70BDFFF781
:100690000FFD002802D002220F4BF4E70F4B1B681E
:1006A000002B0CD0012321000B4A19401C4203D11E
:1006B00023432B601170E7E703231370E4E7FFF790
:1006C00061FFE3E7FFF71CFDE0E7C0467C26002062
:1006D00078260020802600209526002098260020DD
:1006E00010B51E4B1B78022B30D0032B19D0012BD9
:1006F00013D108211A4A13680B4222D11423194A34
:1007000011784B43D218184B1968D3885B1A9BB2E7
:10071000D380002B02D1FFF70BFF10BDFFF74CFD7C
:10072000FBE708210E4A13680B420AD10F4A1368EF
:1007300001331360FFF7BCFC002804D1FFF722FF50
:10074000EBE78B431360FFF7BFFDE6E7084B094A71
:100750001B789B009B589847DFE7C04694260020F3
:100760007C260020AC2500208C2600207826002046
:1007700095260020909D020010B5FFF763FC8022B3
:10078000520513691169421E98B2504389B205F0AF
:1007900029FFFFF769FCFFF7E9FC10BD70B5154CA8
:1007A000042522781300AB4303D002281FD003286E
:1007B00000D070BD104B1B681B0718D40F490B6885
:1007C00001330B60032B07D0022A02D0FFF77CFD18
:1007D000EFE7FFF74BFCECE71421094B0D201A78EB
:1007E00051430431C918FFF74DFC2570EEE7FFF7C0
:1007F00077FFDEE7942600207C260020902600204C
:10080000AC250020002270B501210A24144B151CD0
:100810001A80013C1A71DA80D9601A615A611A8112
:100820001433002CF5D10F4B1C80FFF70BFC8023F9
:100830005B051B6902389BB243430B4A20001360DF
:1008400004220A4B1C600A4B1C609C60094B1D7003
:10085000094B1C60094B1C60094B1A6070BDC046F7
:10086000AC25002084260020882600207826002041
:10087000A025002094260020902600208C26002011
:100880007C260020F7B52B4B04001B680D000820C8
:100890005B070FD50630002C0CD000290AD0236846
:1008A000002B07D080277F053A69A38892B2934234
:1008B00001D90720FEBD0F2BFBD9E288002AF8D012
:1008C00053431D490E689B190193FFF7BBFB3B691E
:1008D00001389BB24343019A9A42EAD8A3889B0706
:1008E000E7D1164B04201F88012FE3D00C237B4354
:1008F0002F606E6012492068CA1858505660A5884B
:1009000001371581E08850818022684352051369C0
:1009100011699BB2C018013889B2146905F0ECFE68
:10092000A4B24443044BA6191E60044B00201F8050
:10093000C0E7C0467C2600208826002084260020B0
:10094000A025002030B5104B04001B6808205B0771
:1009500016D50630002C13D0002A11D020680028AC
:100960000FD10A4D2B68002B0BD02B89646859439B
:1009700009196C8963436C681B19994201D203C23F
:1009800030BD0720FCE7C0467C260020A0250020C3
:10099000F7B504001A48056808206D072ED5063003
:1009A00000292BD0002C29D025680738002D25D10F
:1009B0001448844665462D680720002D1ED06046E9
:1009C0000789458940687D4366682D180720AE4237
:1009D00014D2002A12D0974210D3D518AF420DDBA3
:1009E000032509302B4209D10E432E4206D1009334
:1009F0000F3813000A002100FFF770FDFEBDC0464E
:100A00007C260020A0250020F7B504001A480568C0
:100A100008206D072ED5063000292BD0002C29D0B8
:100A200025680738002D25D11448844665462D6871
:100A30000720002D1ED060460789458940687D4308
:100A400066682D180720AE4214D2002A12D09742B1
:100A500010D3D518AF420DDB032509302B4209D145
:100A60000E432E4206D100930C3813000A002100D9
:100A7000FFF734FDFEBDC0467C260020A0250020E7
:100A8000F0B51600214A85B012680D0008240390C5
:100A9000520735D50634002932D0002830D00A68F4
:100AA000073C002A2CD11A4F3A68002A28D03889EE
:100AB0007A897C68424349681219072491421FD2FF
:100AC000002E1DD0B0421BD3F218904218DB032237
